{"abi":[{"type":"function","name":"getMyDetails","inputs":[],"outputs":[{"name":"","type":"uint256","internalType":"uint256"},{"name":"","type":"address","internalType":"address"},{"name":"","type":"string","internalType":"string"},{"name":"","type":"string","internalType":"string"}],"stateMutability":"view"},{"type":"function","name":"getOtherUserDetails","inputs":[{"name":"_userAddress","type":"address","internalType":"address"}],"outputs":[{"name":"","type":"uint256","internalType":"uint256"},{"name":"","type":"address","internalType":"address"},{"name":"","type":"string","internalType":"string"},{"name":"","type":"string","internalType":"string"}],"stateMutability":"view"},{"type":"function","name":"registerUser","inputs":[{"name":"_ipfsHash","type":"string","internalType":"string"},{"name":"_role","type":"string","internalType":"string"}],"outputs":[],"stateMutability":"nonpayable"},{"type":"function","name":"users","inputs":[{"name":"","type":"address","internalType":"address"}],"outputs":[{"name":"id","type":"uint256","internalType":"uint256"},{"name":"publicKey","type":"address","internalType":"address"},{"name":"ipfsHash","type":"string","internalType":"string"},{"name":"role","type":"string","internalType":"string"}],"stateMutability":"view"},{"type":"event","name":"UserRegistered","inputs":[{"name":"id","type":"uint256","indexed":true,"internalType":"uint256"},{"name":"publicKey","type":"address","indexed":true,"internalType":"address"},{"name":"ipfsHash","type":"string","indexed":false,"internalType":"string"},{"name":"role","type":"string","indexed":false,"internalType":"string"}],"anonymous":false}],"bytecode":{"object":"0x608060405234801561001057600080fd5b50610d3e806100206000396000f3fe608060405234801561001057600080fd5b506004361061004c5760003560e01c80631d2e4afd14610051578063431bbb7e146100665780639937a21614610087578063a87430ba1461009a575b600080fd5b61006461005f3660046109ad565b6100ad565b005b61006e6102d5565b60405161007e9493929190610a61565b60405180910390f35b61006e610095366004610aa8565b6104ac565b61006e6100a8366004610aa8565b6107c7565b336000908152602081905260409020541561010f5760405162461bcd60e51b815260206004820152601760248201527f5573657220616c7265616479207265676973746572656400000000000000000060448201526064015b60405180910390fd5b604051633ab9b2b960e11b602082015260240160405160208183030381529060405280519060200120816040516020016101499190610ad8565b6040516020818303038152906040528051906020012014806101bd5750604051683932b8bab2b9ba32b960b91b602082015260290160405160208183030381529060405280519060200120816040516020016101a59190610ad8565b60405160208183030381529060405280519060200120145b6101f85760405162461bcd60e51b815260206004820152600c60248201526b496e76616c696420726f6c6560a01b6044820152606401610106565b6001805490600061020883610af4565b909155505060408051608081018252600180548252336020808401828152848601888152606086018890526000938452918390529490912083518155935191840180546001600160a01b0319166001600160a01b039093169290921790915551909190600282019061027a9082610ba4565b506060820151600382019061028f9082610ba4565b50506001546040513392507fa344e693e566279a8e48845c27d4ca008ad9412a78a07dac2af66fca3083e4f5906102c99086908690610c64565b60405180910390a35050565b336000908152602081905260408120548190606090819083036103305760405162461bcd60e51b8152602060048201526013602482015272155cd95c881b9bdd081c9959da5cdd195c9959606a1b6044820152606401610106565b3360009081526020818152604080832081516080810183528154815260018201546001600160a01b031693810193909352600281018054919284019161037590610b1b565b80601f01602080910402602001604051908101604052809291908181526020018280546103a190610b1b565b80156103ee5780601f106103c3576101008083540402835291602001916103ee565b820191906000526020600020905b8154815290600101906020018083116103d157829003601f168201915b5050505050815260200160038201805461040790610b1b565b80601f016020809104026020016040519081016040528092919081815260200182805461043390610b1b565b80156104805780601f1061045557610100808354040283529160200191610480565b820191906000526020600020905b81548152906001019060200180831161046357829003601f168201915b505050919092525050815160208301516040840151606090940151919990985092965094509092505050565b336000908152602081905260408120548190606090819083036105115760405162461bcd60e51b815260206004820152601860248201527f526571756573746572206e6f74207265676973746572656400000000000000006044820152606401610106565b604051683932b8bab2b9ba32b960b91b602082015260290160408051601f19818403018152828252805160209182012033600090815280835292909220919261055e926003019101610c92565b60405160208183030381529060405280519060200120146105e75760405162461bcd60e51b815260206004820152603c60248201527f4163636573732064656e6965643a204f6e6c792072657175657374657273206360448201527f616e20616363657373206f7468657220757365722064657461696c73000000006064820152608401610106565b6001600160a01b03851660009081526020819052604081205490036106445760405162461bcd60e51b8152602060048201526013602482015272155cd95c88191bd95cc81b9bdd08195e1a5cdd606a1b6044820152606401610106565b6001600160a01b038086166000908152602081815260408083208151608081018352815481526001820154909516928501929092526002820180549394939184019161068f90610b1b565b80601f01602080910402602001604051908101604052809291908181526020018280546106bb90610b1b565b80156107085780601f106106dd57610100808354040283529160200191610708565b820191906000526020600020905b8154815290600101906020018083116106eb57829003601f168201915b5050505050815260200160038201805461072190610b1b565b80601f016020809104026020016040519081016040528092919081815260200182805461074d90610b1b565b801561079a5780601f1061076f5761010080835404028352916020019161079a565b820191906000526020600020905b81548152906001019060200180831161077d57829003601f168201915b505050919092525050815160208301516040840151606090940151919a9099509297509550909350505050565b60006020819052908152604090208054600182015460028301805492936001600160a01b03909216926107f990610b1b565b80601f016020809104026020016040519081016040528092919081815260200182805461082590610b1b565b80156108725780601f1061084757610100808354040283529160200191610872565b820191906000526020600020905b81548152906001019060200180831161085557829003601f168201915b50505050509080600301805461088790610b1b565b80601f01602080910402602001604051908101604052809291908181526020018280546108b390610b1b565b80156109005780601f106108d557610100808354040283529160200191610900565b820191906000526020600020905b8154815290600101906020018083116108e357829003601f168201915b5050505050905084565b634e487b7160e01b600052604160045260246000fd5b600082601f83011261093157600080fd5b813567ffffffffffffffff8082111561094c5761094c61090a565b604051601f8301601f19908116603f011681019082821181831017156109745761097461090a565b8160405283815286602085880101111561098d57600080fd5b836020870160208301376000602085830101528094505050505092915050565b600080604083850312156109c057600080fd5b823567ffffffffffffffff808211156109d857600080fd5b6109e486838701610920565b935060208501359150808211156109fa57600080fd5b50610a0785828601610920565b9150509250929050565b60005b83811015610a2c578181015183820152602001610a14565b50506000910152565b60008151808452610a4d816020860160208601610a11565b601f01601f19169290920160200192915050565b8481526001600160a01b0384166020820152608060408201819052600090610a8b90830185610a35565b8281036060840152610a9d8185610a35565b979650505050505050565b600060208284031215610aba57600080fd5b81356001600160a01b0381168114610ad157600080fd5b9392505050565b60008251610aea818460208701610a11565b9190910192915050565b600060018201610b1457634e487b7160e01b600052601160045260246000fd5b5060010190565b600181811c90821680610b2f57607f821691505b602082108103610b4f57634e487b7160e01b600052602260045260246000fd5b50919050565b601f821115610b9f57600081815260208120601f850160051c81016020861015610b7c5750805b601f850160051c820191505b81811015610b9b57828155600101610b88565b5050505b505050565b815167ffffffffffffffff811115610bbe57610bbe61090a565b610bd281610bcc8454610b1b565b84610b55565b602080601f831160018114610c075760008415610bef5750858301515b600019600386901b1c1916600185901b178555610b9b565b600085815260208120601f198616915b82811015610c3657888601518255948401946001909101908401610c17565b5085821015610c545787850151600019600388901b60f8161c191681555b5050505050600190811b01905550565b604081526000610c776040830185610a35565b8281036020840152610c898185610a35565b95945050505050565b6000808354610ca081610b1b565b60018281168015610cb85760018114610ccd57610cfc565b60ff1984168752821515830287019450610cfc565b8760005260208060002060005b85811015610cf35781548a820152908401908201610cda565b50505082870194505b5092969550505050505056fea26469706673582212206ff93546fa4a0cee105ac201eca24db102cf60d112ab43cb521ed57f29c9bddc64736f6c63430008120033","linkReferences":{}},"methodIdentifiers":{"getMyDetails()":"431bbb7e","getOtherUserDetails(address)":"9937a216","registerUser(string,string)":"1d2e4afd","users(address)":"a87430ba"},"id":0}